:020000040800F2
:1000000070050020C900000835110008850F0008A0
:1000100000000000000000000000000000000000E0
:10002000000000000000000000000000891200082D
:1000300000000000000000007D1100088B12000885
:10004000DB00000800000000DB000008DB00000807
:10005000DB00000859010008DB000008DB00000895
:1000600000000000DB000008DB000008DB000008E7
:10007000DB000008DB000008DB00000800000000D7
:1000800051130008DB00000800000000DB0000083E
:10009000DB000008DB000008DB000008DB000008D4
:1000A000DB000008DB000008DB000008DB000008C4
:1000B000DB0000080348854600F03CF80048004794
:1000C0004517000870050020044880470448004791
:1000D000FEE7FEE7FEE7FEE7FEE7FEE7F5120008B3
:1000E000B500000830B50B4601460020202201244F
:1000F00009E00D46D5409D4205D31D469540491B5C
:100100002546954040191546521E002DF1DC30BDA4
:10011000D2B201E00270401C491EFBD2704700229F
:10012000F6E710B513460A4604461946FFF7F0FFF6
:10013000204610BD064C0125064E05E0E36807CCBD
:100140002B430C3C98471034B442F7D3FFF7B6FF6B
:10015000BC180008DC18000810B5022000F010F8E8
:1001600010BD31B500F0BCF8009C0546601C00D005
:10017000641C00F0B5F8401BA042FAD338BD7047AC
:1001800010B504494A69024202D04861FFF7F7FFFF
:1001900010BD000000040140F8B500238DE00124EB
:1001A0009C40A44622407DD04C68022C01D0122CE9
:1001B0000CD1DC08A40027183C6A5D07ED0E0F2661
:1001C000AE40B4430E69AE4026433E6205685E0011
:1001D0000324B4400F79A543BF07BF0FB7402F4397
:1001E00007604D68012D05D0022D03D0112D01D0DF
:1001F000122D0ED18568CF68A543B7402F43876085
:1002000047686546AF430D79ED06ED0F9D403D43D0
:100210004560C568A5438C68B4402C43C4604C68F5
:10022000E40049D5284CA56901263543A561A46998
:100230009D0834400094254CAD002F19BC689D07E3
:100240002E0F0F25B540AC430925ED06A84201D17C
:1002500000250FE01E4DA84201D101250AE01D4DE9
:10026000A84201D1022505E01B4DA84201D103257A
:1002700000E00525B5402543BD60184C25684E6853
:100280009543F60300D51543256065684E68954390
:10029000B60300D515436560A5684E689543F60220
:1002A00002D500E008E01543A560E5684E68954377
:1002B000B60200D51543E5605B1C0A681446DC40B5
:1002C00000D06CE7F8BD00000010024000000140C3
:1002D0000004004800080048000C004800040140E9
:1002E00001480068704700001800002070B5024601
:1002F00040325378202B1CD11378012B19D00123C5
:10030000137024245470046825689D432560046894
:1003100025681E03B5432560046825680D432560E4
:10032000006801681943016020205070002010709F
:1003300070BD022070BD70B5024640325378202B4C
:100340001BD11378012B18D001241470242353706F
:1003500003681D68A5431D6005682B680F263602DB
:10036000B343090219432960006801682143016011
:10037000202050700020107070BD022070BD000061
:1003800070B5040006D02546403568780026002860
:1003900002D005E0012070BD2E70204600F04AF822
:1003A00024206870206801684908490001600F2115
:1003B0006068090688432168086121688A6801200D
:1003C000C00382438A60E1680129A16808D0212224
:1003D0009202114322689160E168022902D005E08F
:1003E0000143F7E701212268C902516021684A6888
:1003F0000F4B1A434A602168CA688243CA60616928
:1004000020690843A169090208432168C860216A7C
:10041000E0690843216808602068016801221143EF
:1004200001606664202068702663AE70002070BD95
:100430000080000270B586B0044614216846FFF7BC
:100440006EFE1E4E25681E4CC02212230120032181
:10045000B54218D1666985042E43666166690290CB
:100460002E40059603910490019300926946154829
:10047000FFF792FEE169E8000143E161E1690140B3
:10048000059106B070BD104EB542FAD166690125DE
:10049000AD052E436661666903912E400596029074
:1004A0000193009269460948FFF776FEE069284308
:1004B000E061E06928400590E3E700000054004057
:1004C000001002400004004800580040001400489A
:1004D00002480168491C01607047000018000020B4
:1004E00010B506480168102211430160002000F099
:1004F00007F800F017F8002010BD000000200240AF
:1005000010B5044600F03AF97D21C900FFF7EAFD75
:1005100000F030FB00222146501E00F021F80020A0
:1005200010BD000008B508488169012211438161AE
:10053000816911400091C26901040A43C261C06926
:100540000840009008BD000000100240C106C90E1E
:1005500001208840014908607047000000E100E088
:1005600010B500F0E9FD10BDF8B505460068354C42
:10057000C00352D5E0690026C00007D4E169200419
:100580000143E161E1690140012600912E480168C3
:10059000C90510D40168821511430160FFF7A0FE60
:1005A000074604E0FFF79CFEC01B642824D82648B9
:1005B0000068C005F6D5206A03273F02384020D0E6
:1005C0006968394081421CD0206A226AB8430121FF
:1005D00009040A432262226A8A4322622062C00717
:1005E0000FD0FFF77DFE009008E0FFF779FE00993D
:1005F000411A1648814201D90320F8BD206A8007BC
:10060000F3D5206A6968B84308432062002E04D0FD
:10061000E169012000078143E1612878C00705D026
:10062000206BA96880088000084320632878800632
:1006300005D5206B10218843E9680843206300201A
:10064000F8BD000000100240007000408813000058
:10065000F8B5054644480E460068C007C00FB042D2
:100660000AD24148016849084900314301600068E5
:10067000C007C00FB0425CD128783C4C800705D53C
:100680006068F0218843A968084360602878C00743
:100690003FD06868012813D02168022813D0890749
:1006A000002946DA61688908890001436160FFF723
:1006B00017FE6968074601290DD0022917D024E0EA
:1006C00021688903ECE78901EAE7FFF709FEC11B0E
:1006D0002748814217D860680007800F0128F4D1AD
:1006E00017E0FFF7FDFDC11B214881420BD8606870
:1006F0000007800F0228F4D10BE0FFF7F1FDC11BCA
:100700001B48814201D90320F8BD60680007800FB3
:10071000F3D115480168C907C90FB1420BD9016867
:1007200049084900314301600068C007C00FB0426A
:1007300001D00120F8BD2878400706D56068072160
:1007400009028843E9680843606000F02DF8616899
:10075000084A0906090F515CC84007490860002093
:10076000FFF7CEFE0020F8BD00200240001002403E
:1007700088130000A41800081C000020014800682D
:10078000704700001C0000200448054900684968C3
:10079000044A4905490F515CC84070471C000020BD
:1007A00000100240B418000810B512A30FCB88B097
:1007B0006C460FC413A30FCB0FC416494A680C2014
:1007C000134603401448042B0FD0082B0DD193027D
:1007D0001B0F6C46E45CC96A04AB0907090F595C3E
:1007E000D20304D5FFF77EFC604308B010BD0B4870
:1007F0006043FAE702030405060708090A0B0C0D1B
:100800000E0F10100102030405060708090A0B0C5D
:100810000D0E0F100010024000127A0000093D007A
:10082000FEB504460078D04DC00747D06868000781
:10083000800F012807D068680007800F022809D1BF
:100840006868C00306D52868800337D5606800282B
:100850007ED033E0012062680004012A11D08100BB
:10086000002A01D0052A10D02A6882432A6028680D
:10087000884328606068002814D0FFF731FD0646E1
:100880000CE0296801432960F4E72A680A432A60DA
:10089000F7E7FFF725FD801B64286FD828688003E1
:1008A000F7D50BE0FFF71CFD064604E0FFF718FD47
:1008B000801B6428F1D828688003F7D420780126AB
:1008C000800700283BDA68680007800F07D0686857
:1008D0000007800F022809D16868C00306D4286881
:1008E000800715D5E068012832D111E0E0680028C2
:1008F000286815D030432860FFF7F2FC074604E073
:10090000FFF7EEFCC01B0228C7D828688007F7D580
:100910002868F82188432169C900084328600EE04F
:10092000400840002860FFF7DBFC074604E0FFF7C3
:10093000D7FCC01B0228B0D828688007F7D42078DD
:10094000000724D5E0690028686A10D0304300E031
:1009500008E16862FFF7C4FC074604E0FFF7C0FC4B
:10096000C01B022899D8686A8007F7D50FE04008B5
:1009700040006862FFF7B4FC074605E09DE0FFF722
:10098000AFFCC01B022888D8686A8007F7D420789B
:1009900004274007002860DA00200190E869C000C1
:1009A00008D4E969B8060143E961E9690140012019
:1009B000009101906D480168C90511D40168821544
:1009C00011430160FFF78CFC009005E0FFF788FC05
:1009D0000099401A642870D864480068C005F5D5AD
:1009E000A06801280AD0002801D0052810D0286A64
:1009F000400840002862286AB84301E0286A304372
:100A00002862A068002812D0FFF76AFC00900AE074
:100A1000286A38432862F1E7FFF762FC0099411A1F
:100A20005348814249D8286A8007F5D50DE0FFF781
:100A300057FC009006E0FFF753FC0099411A4C4820
:100A400081423AD8286A8007F5D40198002804D05A
:100A5000E969012000078143E9612078C00635D5A6
:100A6000606901280CD0401D686B23D0384368634F
:100A7000686B400840006863FFF732FC064622E0DE
:100A8000686B38436863686B30436863FFF728FC22
:100A9000064604E0FFF724FC801B02285BD8686B45
:100AA0008007F7D5686BF8218843A169C90008431E
:100AB00068630BE0B8436863F4E74CE0FFF710FCB1
:100AC000801B022847D8686B8007F7D4206A00286B
:100AD00046D069680907890F022943D001263606E6
:100AE0000228286805D0B0432860FFF7F9FB0446C8
:100AF00033E0B0432860FFF7F3FB074604E0FFF75D
:100B0000EFFBC01B022826D828688001F7D4E86ACA
:100B1000E16A000900010843E862616AA06A0843CB
:100B200069683D2212049143084368602868304395
:100B30002860FFF7D5FB044604E0FFF7D1FB001B5C
:100B4000022808D828688001F7D509E0FFF7C8FB1C
:100B5000001B022801D90320FEBD28688001F5D4BE
:100B60000020FEBD0120FEBD0010024000700040CC
:100B700088130000094910B5401E884201D90120A0
:100B800010BD074C60610321081F00F0D5FA00205A
:100B9000A06107202061002010BD0000FFFFFF00C2
:100BA00000E000E07047704770B502462032137FC6
:100BB000012B1BD001231377022454770468656846
:100BC0007026B5436560046865680E6835436560E6
:100BD0000468A5688026B543A560006884684968F4
:100BE0000C43846053770020107770BD022070BDE5
:100BF00070B5040005D025462035687F002802D056
:100C000006E0012070BD00202877204600F00AF899
:100C100002206877211D206800F0A6FB012068777C
:100C2000002070BD08B50068094988420FD1094805
:100C3000C26902210A43C261C069002208400090D3
:100C400011461020FFF78CFC1020FFF77FFC08BD39
:100C50000004004000100240F8B505460446203567
:100C6000287F012817D001272F7702206877226874
:100C700090687726FF23B0431B0298439060086872
:100C8000502837D00EDC202857D006DC00284ED064
:100C9000102840D14EE00220F8BD302850D0402826
:100CA00039D13CE060282DD0702817D001221203E2
:100CB000801A0ED090422ED1CB684A68896820688D
:100CC00000F096FB20688168012292031143816045
:100CD00021E020688168C908C900F8E7CB684A6844
:100CE0008968206800F084FB21688868B04330433D
:100CF000886010E0CA684968206800F08CFB5021C9
:100D0000206806E0CA684968206800F095FB602109
:100D1000206800F078FB6F7700202877F8BDCA685C
:100D20004968206800F077FB40212068F1E7002146
:100D30002068EEE710212068EBE720212068E8E733
:100D400030212068E5E7704770B504460068016906
:100D50000025C9438907002915DBC168C9438907F4
:100D600011D4E91E01610120207720688069800785
:100D7000204602D0FFF7E7FF04E000F096F8204697
:100D800000F094F8257720680169C943490717D412
:100D9000C168C943490713D40421C9430161022032
:100DA0002077206880698005800F204602D0FFF7F9
:100DB000CAFF04E000F079F8204600F077F82577C4
:100DC00020680169C943090716D4C168C9430907E6
:100DD00012D40821C9430161042020772068C0692A
:100DE0008007204602D0FFF7AEFF04E000F05DF878
:100DF000204600F05BF8257720680169C943C906E1
:100E000017D4C168C943C90613D41021C94301616D
:100E1000082020772068C0698005800F204602D016
:100E2000FFF791FF04E000F040F8204600F03EF8A4
:100E3000257720680169C943C90708D1C168C9433A
:100E4000C90704D1891E0161204600F030F82068EE
:100E50000169C943090609D4C168C943090605D413
:100E60008021C94301612046FFF79CFE206801698B
:100E7000C943490609D4C168C943490605D440217C
:100E8000C9430161204600F013F820680169C94395
:100E9000890609D4C168C943890605D42021C943FC
:100EA00001612046FFF77FFE70BD704770477047B5
:100EB000704770B5040005D025466035687A002873
:100EC00002D006E0012070BD00202872204600F00C
:100ED00027F82420687220680168490849000160E9
:100EE000204600F02BFB0128EDD0606A002802D0DC
:100EF000204600F0B4FA206841680122D2029143F2
:100F000041602068816808229143816020680168FF
:100F1000012211430160204600F006FB70BD000075
:100F200010B586B0044614216846FFF7F8F8134957
:100F3000206888421FD112488269012189030A432F
:100F4000826182690A4005924269C9000A4342618E
:100F50004069084005900320400200900220019063
:100F6000002002900320039001200490092069468C
:100F7000C006FFF711F906B010BD000000380140AF
:100F800000100240FEE7012252030029416801D00F
:100F9000114300E09143416070470246926900208E
:100FA0000A4200D00120704770B5049D446889054D
:100FB000890D1204034E1143194334402943214340
:100FC000416070BD009800FC00B587B014216846F0
:100FD000FFF7A5F815484269012149040A43426117
:100FE00042690A400592426949010A4342614269E5
:100FF0000A400592426909110A434261406908406A
:101000000590022000900A480190002002900920DB
:101010006946C006FFF7C0F8002211460520FFF719
:101020009FFA0520FFF792FA07B000BD00100240BA
:101030000000211010B50D480B4901600C494160BA
:10104000002181600161416181610122C161C26051
:101050000162FFF795F900210448FFF747F90021E5
:101060000248FFF768F910BD00540040240000203A
:101070000E09002010B50D480B4901600C49416074
:10108000002181600161416181610122C161C26011
:101090000162FFF775F900210448FFF727F90021E5
:1010A0000248FFF748F910BD0058004070000020CA
:1010B000D28C800010B586B00024009410480194B2
:1010C0000294039404940D490594016026218460E0
:1010D0004160046164218461C160FFF789FD0120E2
:1010E0000003009069460648FFF7B6FD049404A982
:1010F00003480594FFF758FD06B010BD00040040FA
:10110000BC00002010B50A48084901604B21490283
:10111000416000218160C16001618161C1610C2277
:10112000016242614162FFF7C4FE10BD0038014018
:10113000FC000020704700008307FF22DB0E9A406E
:101140008907090E994000280BDA0007000F0838BC
:10115000830808489B001818C36993430B43C36175
:101160007047830804489B001B1818689043084385
:101170001860704700ED00E000E400E070470000F8
:10118000F7B500270F4C0E460546FF2801D9A220CF
:1011900000E0A0202080208800F0F4FA0FE028462C
:1011A00000F012F802996D1CC855761EADB27F1C76
:1011B000B6B2FF2D01D9A22000E0A0202080002E91
:1011C000EDD1FEBD0C000020F8B50746012040031C
:1011D0002B4C00900023218801222A4D2846FFF73E
:1011E000E3FE05267603A66004E0A068401EA0602A
:1011F000401C05D002212846FFF7CFFE0028F4D07E
:10120000F8B2A862A66004E0A068401EA060401C7E
:1012100005D040212846FFF7C0FE0028F4D0092061
:101220008002012300905B06218801222846FFF7F7
:10123000BBFEA66004E0A068401EA060401C05D074
:1012400004212846FFF7A9FE0028F4D0686AA660AA
:10125000C3B204E0A068401EA060401C05D020215D
:101260002846FFF79AFE0028F4D02020E861A06805
:10127000002801D01846F8BD00F056FA0020F8BD4D
:101280000C00002000580040704710B5FFF720F90F
:1012900010BD30B595B030216846FEF740FF002400
:1012A0000D94129401200E9403901394102009942D
:1012B000022504900F940720009580040C9410944C
:1012C0000A90119408950B946846FFF7A9FA072035
:1012D0000C900E9401210D950F940CA8FFF7B8F90E
:1012E000212010901294139410A8FFF73DF915B027
:1012F00030BD0000134801680122114301604168BC
:10130000114A114041600168104A114001600168B2
:10131000012292049143016041683F2212049143EB
:101320004160C16A09090901C162016BFF221432DF
:1013300091430163416B4908490041630021816089
:1013400070470000001002400CB8FF08FFFFF6FED7
:1013500010B50348FFF7F8FC02490120087010BDE2
:10136000BC00002001000020F0B502681A4B1B4CA5
:10137000984201D0A04203D17025AA434D682A4368
:10138000174D184E184F98420AD0A04208D0174C5B
:10139000A04205D0A84203D0B04201D0B84205D146
:1013A0001446032212029443CA6822438024A243B3
:1013B0004C69224302608A68C2620A68826298426B
:1013C00005D0A84203D0B04201D0B84201D109698A
:1013D000016301214161F0BD002C01400004004087
:1013E000004001400044014000480140002000400E
:1013F00030B58468FF252D021B021343AC430B4319
:101400002343836030BD826870239A430A430721D7
:101410000A438260704730B5036A046A6408640056
:1014200004628469F025AC43120122430A24A343D9
:101430000B438261036230BD30B5036A1024A343BD
:1014400003628469036A0F252D031203AC43224310
:10145000A024A343090119438261016230BD10B584
:10146000818CC90707D001684A6801235B049A434D
:10147000836A1A434A60818C890707D501684A68E4
:1014800001231B049A43C36A1A434A60818C4907AB
:1014900007D501684A6801239B049A43036B1A43EA
:1014A0004A60818C090707D501684A680123DB037C
:1014B0009A43436B1A434A60818CC90607D5026878
:1014C000916801231B039943836B19439160818CBD
:1014D000890607D501688A6801235B039A43C36BB9
:1014E0001A438A60818C490612D503685A68012123
:1014F0000905046C8A4322435A60026C8A4207D170
:101500000268516803235B059943436C194351609A
:10151000818C090607D501684A680123DB04806CC9
:101520009A4302434A6010BD0021C1662022603008
:10153000427282720172084670470000F8B5044694
:101540002369A268E5691A43636910202B430021CF
:1015500025681A432B680E463E4F3B4013432B60D1
:1015600023685A6803252D03AA43E5682A435A6075
:10157000236AA26925681A43AB680B273F02BB4365
:101580001343AB60344A2568954210D1334A126B3D
:101590009207920F0ED0012A05D0022A05D0032A05
:1015A00009D1022007E0042005E0082003E02C4ACE
:1015B000954200D100200122E369D203934224D155
:1015C00000280CD002280DD0042813D0082817D0EA
:1015D00001260A0912010807400F10432FE0FFF708
:1015E000D3F809E061681F4A48088018FEF77AFDC1
:1015F00081B2EEE7FFF7D8F8616840004A08F4E7E7
:101600006168012248081204EFE7002808D0022888
:1016100009D004280BD0082814D001263046F8BD84
:10162000FFF7B2F805E061680F4A48080CE0FFF7E1
:10163000BBF861684A088018FEF754FD80B2216843
:10164000C860EBE7616848088018FEF74BFD80B280
:10165000E860E3E7F369FFFF003801400010024053
:10166000004400400024F40000127A00F7B500277F
:10167000134C0E460546FF2801D9A22000E0A02009
:101680002080208800F07EF80120608014E002981D
:101690000B4AC019921C294600F0A4F8761E6D1C56
:1016A000ADB27F1CB6B2FF2D01D9A22000E0A02070
:1016B0002080208800F066F8002EE8D1FEBD0000F2
:1016C0000C00002010B5024A024900F014F810BDC9
:1016D000151700082000002002E008C8121F08C1EA
:1016E000002AFAD170477047002001E001C1121FA3
:1016F000002AFBD17047F8B516460F460446002570
:1017000003E03946B047641C6D1C20780028F8D1EE
:101710002846F8BD38B5044668460470694603207B
:10172000ABBE204638BD000010B502A0FFF7CAFFCF
:10173000FE2010BD0A0D6572726F725F43616C62AC
:1017400061636B00FEF7CCFEFFF7A3FDFFF73CFCE7
:10175000FFF770FCFFF7D6FCFFF7ACFCFFF78AFC45
:10176000074A0221F720FFF781FF6420FEF7F9FC0A
:10177000034A0221121DF720FFF702FDF8E70000DF
:10178000040000207CB50022144C01230146019284
:101790005B0620460092FFF707FCA514104BFF26BE
:1017A0002D3630209D60E06101212046FFF7EBFBE4
:1017B0009868401EFDD298600198411C0191B0428A
:1017C00002D1FFF7B1FF7CBD10212046FFF7E5FBFA
:1017D0000028E6D12020E06100207CBD00580040B8
:1017E0000C000020F7B50120400382B02B4C009084
:1017F00017460026C302218801222948FFF7D4FB9F
:1018000005256D036560264B03E06068411E61603D
:1018100036D302211846FFF7C0FB0028F5D0039805
:10182000C0B29862656003E06068411E616027D3C2
:1018300080211B48FFF7B1FB0028F5D00020009065
:101840003A78012321885B061548FFF7ADFB144B5E
:101850000DE06268521E626012D302211846FFF743
:101860009CFB0028F5D00298805D9862761C387841
:101870006560B042F1D107E06168481E606003D244
:10188000FFF752FF05B0F0BD20211846FFF785FB9A
:101890000028F1D02020D8610020F3E70C000020C0
:1018A0000058004000000000000000000102030496
:1018B000060708090000000001020304DC18000804
:1018C0000000002024000000D816000800190008BD
:1018D000240000204C050000E8160008000000006D
:1018E0002202000000000000A000000000A0000094
:1018F00000A000000000000000127A0000000000BC
:04000005080000B53A
:00000001FF
